:10002E001256459001C9A3A3E0FFA3E090031DCF94
:0D003E00F0A3EFF07B007A00791A0236F291
:0C40E30041030F004103100041031100D5
:03002B0002004E82
:0D004E00C0E0C083C082C0D075D000C007E4
:10005B00C0864386405386BF90030FE0FF04F0EF4A
:0B006B00C394014004E4F0D218D086DA
:0B007600D007D0D0D082D083D0E03281
:03004B00024D174C
:104D1700C0E0C0F0C083C082C0D075D000C000C062
:0D4D270001C002C003C004C005C006C007E3
:104D3400C0865386BF900310E0FF04F0EFC39414C1
:104D44004004E4F0D211900311E004F0E0C39402B3
:104D5400400BE4F07B017A02793712579712511015
:024D6400D086F7
:104D6600D007D006D005D004D003D002D001D000A1
:0B4D7600D0D0D082D083D0F0D0E0324B
:03001B00025194FB
:10519400C0E0C0F0C083C082C0D075D000C000C0E1
:1051A40001C002C003C004C005C006C007C0861207
:1051B4002EAFD086D007D006D005D004D003D002BD
:0F51C400D001D000D0D0D082D083D0F0D0E03254
:03008300024DE546
:104DE500C0E0C0F0C083C082C0D075D000C000C094
:104DF50001C002C003C004C005C006C007C0864389
:104E0500864030900BC2907B017A027937123BE0E5
:104E150030910BC2917B017A027937124A58D086BC
:104E2500D007D006D005D004D003D002D001D000E1
:0B4E3500D0D0D082D083D0F0D0E0328B
:095883009002A6E5B1F075B10137
:01588C0022F9
:1041A00012588375800175E1BFE4F5E9F590F5E2F9
:1041B00075EAFF75A00375E3FE75EB03F5B075E4D2
:1041C000EFF5EC75C00F75E5E775ED0C438640F52E
:1041D0008075E1FFF5E9F5E2F5E35386BF75B28836
:1041E0007F64FE12586243B28C438640438802E4E7
:1041F000F58C758DC05386BFD2AD43864075CC1FFC
:1042000075CDD15386BF43A90443864075CE9F75B3
:10421000CFF65386BFD2AB43864075E6355386BF93
:1042200075DA9EF5DB75DC4FF5DD75D911438640F7
:1042300075C29EF5C375C44FF5C575C1115386BFD0
:1042400043864075905075957F75946475960443C8
:0942500095805386BF43AA0222A7
:1056DA00D2AF438640D28AD2C9D2C143C18053864F
:0556EA00BF43D980223E
:0358C7000258AADA
:0658B900124FEC0230CAA0
:1040EF00420302000042030000004102FE084102A9
:0240FF00FF07B9
:0D000E0053D97F43864053C17F5386BF22E4
:0D001E0043D98043864043C1805386BF22F2
:1054B3009002FEE0601314F0A3E0FF9002FEE0C34D
:1054C3009F500302000E02001E9002FE7408F0A318
:0254D30014F0D3
:0154D50022B4
:0800030012546A781F76FF22F7
:0858AA0012548FE4781FF6226E
:01008100225C
:01008200225B
:0158CD0022B8
:104FEC00124E99781FE6FF1392B3EFC3131392B2CC
:104FFC00E6FF1313543F1392B6EF131313541F13FE
:10500C0092B7E6FFC4540F1392A2EFC413540713C4
:10501C0092A5E6FFC4131354031392A4438640EFE6
:0D502C00C413131354011392825386BF2244
:0158CE0022B7
:0941010041031700420318006499
:104853009002A57464F0C2AF1241A07B017A027981
:104863007C7D011250397B017A02799E7D021250C0
:104873008112444B1252121256DA1258833011FA33
:10488300C21112430C7B007A00790A12461D124BA7
:10489300CF124B537B017A0279371250C912002E83
:1048A3009002A5E07011900210E060117B017A0282
:1048B3007923123F5480069002A5E014F0900295EC
:1048C300E0600C14F0781F76FFE07006F6800312A8
:0748D30058141258B980A32C
:10276400781AE69002A6F0900223E09002A7F07B8C
:10277400017A02793612586D7B017A03791812575F
:10278400E7900317E0700FA3F0A374C8F090031749
:10279400E004F0020003900317E0B4011F120003E9
:1027A400900318E07002A3E060030229E690031886
:1027B400F0A3743CF0900317E004F0221258AA909E
:1027C4000317E0C39406504EA3E07002A3E0701414
:1027D400900318F0A3743CF0900317E004F0900207
:1027E400BF7402F0900317E024FE14601414601800
:1027F40014601C240360030229E67FAA7E8A02294E
:10280400E37FAA7EA80229E37F8A7EAA0229E37FC6
:10281400A87EAA0229E3900317E0C39410502BA3C7
:10282400E07002A3E0700E900318F0A3743CF090E3
:102834000317E004F0900317E024FAFFE434FFFEEA
:102844007C047D57121B2A0238FC900317E0FFC357
:102854009418507BA3E07002A3E0700E900318F06C
:10286400A3743CF0900317E004F0900317E024F005
:10287400B4080040030229E6902883F8282873024C
:10288400289B0228A20228A90228B00228B70228FD
:10289400BE0228C50228CC781FE64401F622781F20
:1028A400E64402F622781FE64404F622781FE64442
:1028B40008F622781FE64410F622781FE64420F634
:1028C40022781FE64440F622781FE64480F622EF81
:1028D400C394215022900318E07002A3E0700E907C
:1028E4000318F0A3743CF0900317E004F09003176E
:1028F400E024E8FF022C6A9002A7E0FFB402067805
:102904001FE64401F6EFB40106781FE64480F69012
:1029140002A6E0FFB40106781FE64401F6EFB40214
:1029240006781FE64402F69002A6E0B40306781F78
:10293400E64404F69002A6E0FFB40406781FE644D9
:1029440008F6EFB40506781FE64410F69002A6E0F8
:10295400B40606781FE64420F69002A6E0FFB4070A
:1029640006781FE64440F6EFB40806781FE6448074
:10297400F69002A6E0B409057F01122C6A9002A623
:10298400E0B40A057F02122C6A9002A6E0B40B059B
:102994007F03122C6A9002A6E0B40C057F04122C6B
:1029A4006A9002A6E0B40D057F05122C6A9002A677
:1029B400E0B40E057F06122C6A9002A6E0B40F055F
:1029C4007F07122C6A9002A6E0B410057F08122C2F
:1029D4006A900236E0700B9002BFF07FDD7EBC127D
:0229E400458329
:0129E60022CE
:0E58140090026AE0B4550302276412541E226B
:0D410A00410295C8420296012C41026B0152
:1029E700900223E09002A6F0781AE6A3F090026B1B
:1029F700E060081258C7E490026BF0781BE6641297
:102A0700600B900224E064016003022BB2E4781BA0
:102A1700F6900224F09002A7E0FF6401601590028F
:102A2700A6E0B4022790027FE06403601F90028152
:102A3700E0701990029574C8F090026B7401F090E1
:102A4700029804F090028714F0022BB2EFB408103A
:102A5700900286E0700A781FE64480F674018030A1
:102A67009002A7E0B40810900286E0B40109781F2D
:102A7700E6547FF6E4801990027FE0FFB4031590D7
:102A870002A7E0B4010EE490027FF0900282F0A367
:102A9700F0022B36EFB403129002A7E0B4040BE464
:102AA700900210F090028204801790027FE0B40336
:102AB7001D9002A7E0B405169002837401F09002FE
:102AC70010F0900296F0A3742CF0A3022BAF9002A3
:102AD700A7E0FFB40318900281E0B401117402F07B
:102AE7009002987404F0E490027EF0022BB2EF6437
:102AF700037041900281E064027039F0781FE65458
:102B0700FBF6E490027EF090029DF0780CF6780ACE
:102B1700E675F064A4FF08E67C002FFEEC35F0A311
:102B2700F0A3CEF07B017A02799E7D0212560C90BB
:102B3700029880749002A7E0B40517900281E0B470
:102B47000110780A06E6C394184002E4F69002984A
:102B570080569002A7E0FFB40417900281E0B40109
:102B670010780AE616D394005002761790029880E0
:102B770037EFB40517900281E0B40210780B06E630
:102B8700C3943C4002E4F6900298801C9002A7E0B0
:102B9700B40418900281E0B40211780BE616D394BE
:102BA700005002763B9002987404F0781BE66408A4
:102BB7007073F69002987404F09002A7E0FFB401D6
:102BC7001D90027DE0701790029604F0A3742CF01C
:102BD70090027F7403F0781FE64401F68047EFB454
:102BE7000310900281E0700A04F0781FE64404F6AF
:102BF70080339002A7E0B4072C7F207EBF7D027C44
:102C070000900299E0F8A3E0F9A3E0FAA3E0FBC380
:102C1700121DCC7010900299121E0F000000007850
:102C27001FE654BFF690027FE0B4030F9002A7E0BF
:102C370070097B017A0279961257E790027FE0B418
:102C47000320900296E07002A3E0701690027FF0D6
:102C5700900282F0A3F0781FE654EFF654F7F6548B
:022C6700FEF677
:012C69002248
:101E7900900223E09002A6F0781AE6A3F090027F80
:101E8900E07020781FE64401F64408F64410F69005
:101E9900027D7401F012548FE47812F608F690026C
:101EA9007F04F0781BE66412600B900224E0640161
:101EB90060030220ADE4781BF6900224F09002A79B
:101EC900E0FFB4012590027FE0B4011E900279E49D
:101ED900F0A374B4F078127601087601780D7600D3
:101EE90008F690027F7402022091EF640160079066
:101EF90002A6E0B4012790027FE0B40220E4900238
:101F090087F090027DF090027CF090027FF07813C8
:101F1900760118F69002987403F00220AD9002A69B
:101F2900E0FFB4021690027FE0B4020F90027C74C5
:101F390006F0E47812F608F60220AD9002A7E064F4
:101F4900046005EF6401701A90027FE0B4011390F8
:101F5900027CE014F07B017A02797CE4FD125719C6
:101F690080289002A7E0640560089002A6E0640258
:101F7900703290027FE0B4012B90027CE004F07B88
:101F8900017A02797C7D081257D8E47812F608F6AE
:101F99009002987404F07B017A02797C7D011255D4
:101FA900EF0220AD9002A7E0640460079002A6E06A
:101FB900B4012B90027FE0B4022490027AE024C499
:101FC900F0900279E034FFF078127601087601E0AA
:101FD900FEA3E0FF780DA60608A6070220AD900231
:101FE900A7E0FF640560079002A6E0B4022B900207
:101FF9007FE0B4022490027AE0243CF0900279E078
:102009003400F078127601087601E0FCA3E0FD784F
:102019000DA60408A6050220ADEF6406702F9002F4
:1020290084E07029781FE64420F6780D760008765A
:10203900B47812760108760190027CE0900288F06B
:1020490090027C7409F09002847401803B9002A78D
:10205900E0B4061E900284E0B40117E4F07812F6A9
:1020690008F6900288E090027CF0781FE654DFF6CB
:10207900802C9002A7E0FFB40811900286E0700B53
:10208900781FE64480F67401F08013EFB4081590C8
:102099000286E0B4010E781FE6547FF6E4F0900260
:1020A900987404F07814E66401703BF69002987411
:1020B90006F0900284E0B40117E4F07812F608F60D
:1020C900900288E090027CF0781FE654DFF68016D3
:1020D90090027FE0B4020FE4900287F090027FF053
:1020E9007813760118F6781BE6B4083BE4F69002FB
:1020F900987404F09002A7E0B4072C7F207EBF7D7E
:10210900027C00900299E0F8A3E0F9A3E0FAA3E0C9
:10211900FBC3121DCC7010900299121E0F00000013
:1021290000781FE654BFF69002A7E0FF24F7B40831
:1021390000506490214A75F003A4C58325F0C58336
:102149007302216202216A02217202217A0221822A
:1021590002218A02219202219A90027C7401F08064
:102169003690027C7402F0802E90027C7403F08019
:102179002690027C7404F0801E90027C7405F08025
:102189001690027C7406F0800E90027C7407F08031
:102199000690027C7408F0EFC3940940149002A7DA
:1021A900E0D39410500B7B017A02797C7D011255A2
:1021B900EF7813E6700C18E6700890027CE0FF12C5
:0A21C900537C90027CE0FF022C6AB8
:0158CF0022B6
:0158D00022B5
:104259007819E620E30302430B7813E6B40103124D
:1042690057B87F207EBF7D027C00900299E0F8A3B9
:10427900E0F9A3E0FAA3E0FBC3121DCC7011781F8B
:10428900E630E60554BFF68006781FE64440F6900E
:104299000283E0B40111781FE630E40554EFF6809B
:1042A90006781FE64410F6900282E0B40111781FE7
:1042B900E630E30554F7F68006781FE64408F690E1
:1042C9000281E0FFB4011090027EE06004E4F08016
:1042D9000690027E7401F0EFB4021090029DE06036
:1042E90004E4F0800690029D7401F090027FE0B42E
:1042F9000210781FE630E00454FEF622781FE644E7
:0343090001F62298
:10541E00124259900287E014600D14600D14600D55
:10542E002403700C0229E7021E790258CF0258D0CD
:06543E00E4900287F02259
:1053A6009002107401F0E47812F608760190027EFD
:1053B600F090029DF090027FF0A3F0A3F0A3F0A37B
:0853C600F0A3F0A3F0A3F02214
:105212001258C7E4900287F09002677407F0900278
:10522200987401F0125704123AF37B007A00790A5B
:10523200124F4A7B007A00791A12553D1253517B64
:0B524200017A0279231255D20253A614
:0941170042031A000041031C00E0
:0B586200EF1FAC0670011E4C70F62218
:104B530090027DE060757819E630E42D900299E0CB
:104B6300FCA3E0FDA3E0FEA3E02401FFE43EFEE49A
:104B73003DFDE43CFC900299121E0390031BE004EC
:104B8300F0700690031AE004F07F207EBF7D027C64
:104B930000900299E0F8A3E0F9A3E0FAA3E0FBC3D5
:104BA300121DCC40107819E630E30A900299121EC8
:104BB3000F0002BF20C390031BE0948490031AE00C
:0B4BC30094034007E4F0A3F0124D81C2
:014BCE0022C4
:10430C007812E660747819E620E40302439D780D78
:10431C00E6FE08E6FF7C0E7D10121B3C780FA6070C
:10432C00780DE6FE08E6FF7C007D3C121B3C781005
:10433C00A607780DE6FE08E6FF7C007D3C121B3CD0
:10434C00AF057811EFF618E675F064A47C002DFE2D
:10435C00EC35F09002CEF0A3CEF0780EE618467055
:10436C000A7812F608F60876018026E47814F678B6
:10437C000EE616187001168018780AE675F064A41B
:10438C00FF08E67C002FFEEC35F09002CEF0A3CEB9
:10439C00F07813E6600B9002CEE0FEA3E0FF12383B
:0243AC00FC22F1
:10461D009002A6EBF0A3EAF0A3E9F02018030246FE
:10462D00AEC2189002A6E0FBA3E0FAA3E0F9900059
:10463D00027401121AC3C3943C4066900002E41246
:10464D001B08900001121A74FD7C00121A3775F0C8
:10465D0064A42DFEEC35F090029EF0A3CEF07B010C
:10466D007A02799E7D0212560C9002A6E0FBA3E021
:10467D00FAA3E0F99000017401121AC3C3943C40EF
:10468D0020900001E4121B087401121AA1C39418A2
:10469D00400F9002A6E0FBA3E0FAA3E0F9E4121AA2
:0246AD00F622F3
:104F4A009002A6EBF0A3EAF0A3E9F090029EE0FE3D
:104F5A00A3E0FF7C007D64121B3C9002A6E0FBA349
:104F6A00E0FAA3E0F9EF121AF690029EE0FEA3E03F
:104F7A00FF7C007D64121B3C9002A6E0FBA3E0FAD2
:104F8A00A3E0F9900001ED121B08900002E4021B55
:014F9A00080E
:104BCF0078150806E6187001068606C3781896EE63
:104BDF0018964006E47815F608F6E47819F690036F
:104BEF001CE004F0C394644002E4F090031CE0FF67
:104BFF0030E0067819E64401F6EF75F00A84E5F027
:104C0F0070067819E64404F690031CE06003B43292
:104C1F000B7819E64408F6A210B3921090031CE02B
:0D4C2F00700B7819E64410F6A213B392132F
:014C3C002255
:1047C90007D0003C008C09C40028006407D00032DF
:1047D900007805DC0050067C00FF0000000005DCC5
:1047E9000032007807D00028006409C40050067C14
:1047F90000FF0000000009C40032007807D000283B
:10480900006405DC0050067C00FF0000000007D0B2
:10481900008C05DC00FF000000000B54008C05DC57
:1048290000FF0000000009C4006400F007D0006424
:1048390004EC00FF00000000FF47C9FF47E7FF47FE
:0A484900FFFF4817FF4823FF482F28
:0A588D00C2B5E4F5DCF5DDF5D92223
:10567C00AD07AC06EFF5DAECF5DBECC313FEED137E
:09568C00F5DCEEF5DD75D999227B
:1053CE009002F57402F0EF75F003A42441F582E427
:1053DE003448F583740193FA740293FF9002F3EA52
:0853EE00F0A3EFF0E4A3F022AC
:10401D009002F5E01460720460030240DD9002F33B
:10402D00E0FEA3E0AA06F97BFF78ED7C027D017E20
:10403D00007F06121A119002EDE0FEA3E0FFF44E90
:10404D00600A9002F1E07002A3E070079002F5742F
:10405D0002F022AB07AA06E4F9F87F607EE37D1635
:10406D00FC121D2D12567C9002EFE0FEA3E0FFC363
:10407D009002F2E09FFF9002F1E09E9002EFF0A31C
:10408D00EFF09002F57401F0229002F1E07002A3BE
:10409D00E060299002F2E024FFF09002F1E034FF9D
:1040AD00F09002EFE0FEA3E0FFC39002F2E09F90DC
:1040BD0002F1E09E5003C2B622D2B6229002F4E085
:1040CD002406F09002F3E03400F0E49002F5F022C3
:0540DD00C2B612588D6F
:0140E20022BB
:0C583E00C2B612588D9002F57405F022DD
:0158D20002D3
:0158D10022B4
:1046AF0090031DE0FEA3E0FF4E700302473AEF8E2A
:1046BF00F0121E4C47100001470D0002470A00047C
:1046CF004707000847130010471C002047160040FB
:1046DF00471900804731010047340200471F04008B
:1046EF00472208004725100047282000472B40008D
:1046FF00472E8000000047377F01227F02227F0371
:10470F00227F04227F05227F06227F07227F082235
:10471F007F09227F0A227F0B227F0C227F0D227FAF
:0D472F000E227F0F227F10227FFF227F00CD
:01473C00225A
:1048DA009000027401121AC3900003121A74C3944E
:1048EA00EF90000350077401121AC38004E4121BEC
:1048FA0008900001E4121B08900002121A74FF24A7
:10490A00E7601B24F4601E24F3602124E76024245A
:10491A00CE6027247C702A9000017401802E9000BA
:10492A0001740580279000017406802090000174AC
:10493A0007801990000174088012900001740980A0
:10494A000BEFD394FA400890000274FA121B082263
:0C4120004103130041031400410315008B
:10553D00900003E4121B08900002E4121B08900077
:0E554D0001E4121B08E4121AF6900316F02275
:1052F100121AF6E4900314F09002A6E0FBA3E0FA80
:03530100A3E0F92D
:10530400900002121A74C3944B9000014004741468
:0E53140080027412121B08900002E4021B08B3
:0B36F2009002A6EBF0A3EAF0A3E9F0C1
:1036FD001246AF900313E06F6009EFF0E4900315ED
:10370D00F0C3229058D2E493FE900315E004F0C369
:10371D009E5002C322E4900315F0A3E0FEC3940172
:10372D004021E4900314F0EE64026005EF94105014
:10373D0009EF7018900316F08012EFF4600EE4900C
:10374D000316F0EF7037900314E070319002A6E08D
:10375D00FBA3E0FAA3E0F9E4121AF69002A6E0FB4F
:10376D00A3E0FAA3E0F9900001E4121B0890000316
:10377D00E4121B08900002E4121B08C322EFB4FFF1
:10378D000D9003167401F0E4900314F0C322EF7052
:10379D0016900314E0FE9002A6E0FBA3E0FAA3E06E
:1037AD00F9EE1252F1D322900314E0FE6F602CEE6D
:1037BD007013EFF09002A6E0FBA3E0FAA3E0F9EF9F
:1037CD00121AF68016900314E0FF9002A6E0FBA3F8
:1037DD00E0FAA3E0F9EF1252F1800E9002A6E0FBA1
:0A37ED00A3E0FAA3E0F91248DAD3D2
:0137F70022AF
:10555B009003167402F0E4121AF6900001121B0865
:0E556B00900003E4121B08900002E4021B08EB
:1021D3000000102120423063408450A560C670E7A0
:1021E30081089129A14AB16BC18CD1ADE1CEF1EF48
:1021F300123102103273225252B5429472F762D6F0
:1022030093398318B37BA35AD3BDC39CF3FFE3DE97
:10221300246234430420140164E674C744A454853F
:10222300A56AB54B85289509E5EEF5CFC5ACD58DE7
:10223300365326721611063076D766F6569546B48F
:10224300B75BA77A97198738F7DFE7FED79DC7BC37
:1022530048C458E5688678A70840186128023823DF
:10226300C9CCD9EDE98EF9AF89489969A90AB92B87
:102273005AF54AD47AB76A961A710A503A332A122F
:10228300DBFDCBDCFBBFEB9E9B798B58BB3BAB1AD7
:102293006CA67C874CE45CC52C223C030C601C417F
:1022A300EDAEFD8FCDECDDCDAD2ABD0B8D689D4927
:1022B3007E976EB65ED54EF43E132E321E510E70CF
:1022C300FF9FEFBEDFDDCFFCBF1BAF3A9F598F7877
:1022D300918881A9B1CAA1EBD10CC12DF14EE16F57
:1022E300108000A130C220E350044025704660678F
:1022F30083B99398A3FBB3DAC33DD31CE37FF35EA7
:1023030002B1129022F332D24235521462777256DE
:10231300B5EAA5CB95A88589F56EE54FD52CC50DF6
:1023230034E224C314A0048174666447542444052E
:10233300A7DBB7FA879997B8E75FF77EC71DD73C46
:1023430026D336F2069116B066577676461556347E
:10235300D94CC96DF90EE92F99C889E9B98AA9AB96
:10236300584448657806682718C008E1388228A3CE
:10237300CB7DDB5CEB3FFB1E8BF99BD8ABBBBB9AE6
:102383004A755A546A377A160AF11AD02AB33A921E
:10239300FD2EED0FDD6CCD4DBDAAAD8B9DE88DC936
:1023A3007C266C075C644C453CA22C831CE00CC16E
:1023B300EF1FFF3ECF5DDF7CAF9BBFBA8FD99FF886
:1023C3006E177E364E555E742E933EB20ED11EF0BE
:1023D300005EBCE2613FDD83C29C7E20A3FD1F4102
:1023E3009DC3217FFCA2401E5F01E3BD3E6082DCF2
:1023F300237D9FC1421CFEA0E1BF5D0380DE3C62E2
:10240300BEE0025CDF81633D7C22C09E1D43A1FFD1
:102413004618FAA427799BC584DA3866E5BB5907C1
:10242300DB856739BAE406581947A5FB7826C49AB1
:10243300653BD987045AB8E6A7F91B45C6987A24A1
:10244300F8A6441A99C7257B3A6486D85B05E7B991
:102453008CD2306EEDB3510F4E10F2AC2F7193CD81
:10246300114FADF3702ECC92D38D6F31B2EC0E5071
:10247300AFF1134DCE90722C6D33D18F0C52B0EE61
:10248300326C8ED0530DEFB1F0AE4C1291CF2D7351
:10249300CA947628ABF517490856B4EA6937D58B41
:1024A3005709EBB536688AD495CB2977F4AA481631
:1024B300E9B7550B88D6346A2B7597C94A14F6A821
:1024C300742AC896154BA9F7B6E80A54D7896B3511
:1054D600A214301501B34007E4121AF6A21522747D
:1054E60001121A50D394014007E4121AF6A21422AC
:0354F600A21522DA
:0B39FB009002F6EBF0A3EAF0A3E9F065
:103A0600ED149002FBF09002FBE0D3940050030209
:103A16003AF2E49002F9F0A3F09002FBE0FF900284
:103A2600F9E0FEC39F4003023AE9EE75F002A4FFF7
:103A36009002F6E0FBA3E0FAA3E02FF9EA35F0FAEC
:103A4600900002121BE8FFAEF09002F6A3E0FAA384
:103A5600E0F9A3E075F002A4F58285F083121BE875
:103A6600D39FE5F09E40739002F6A3A3A3E0FF75F3
:103A7600F002A4F58285F083121BE8FD9002FCE5B6
:103A8600F0F0A3EDF0EF75F002A4FFE92FF9EA35A7
:103A9600F0FA900002121BE8FFAEF09002F6A3E0E7
:103AA600FAA3E0F9A3E075F002A4F58285F083EEAF
:103AB6008FF0121CC49002FCE0FCA3E0FD9002F91A
:103AC600E075F002A429F9EA35F0FA900002EC8DCF
:103AD600F0121CC49002F9E0A3F09002F9E004F0A1
:0C3AE600023A1F9002FAE0A3F0023A0C32
:013AF20022B1
:10575300121A37FFC39D5007EF04121AF6D322C360
:015763002223
:10566100121BBDFFAEF0C39DEE9C500DEF2401FF58
:0B567100E43E8FF0121CA5D322C322E0
:1057A800121A37D39D400774FF121AA1D322C322BD
:1056EF00121BBDD39DE5F09C400974FFF5F0121C11
:0556FF0020D322C322AC
:0F57D800121A37C39D4006ED121AF6D322C322D0
:1056AE00121BBDC39DE5F09C400AAF05EC8FF012B6
:0656BE001CA5D322C3224B
:10571900121A37FFD39D4004EFB4FF06ED121AF6B3
:04572900D322C322A2
:1056C400121BBDD39DE5F09C500AAF05EC8FF01280
:0656D4001CA5D322C32235
:0E582200121A37C394FF50057401121AA12206
:0B586D00121A37600574FF121AA12206
:10572D00121BBDC394FFE5F094FF5007E475F00123
:04573D00121C2022F8
:0F57E700121BBD45F0600774FFF5F0121C202265
:10576400EC8DF0121CA5121BBDB505F4ECB5F0F0E0
:015774002212
:1054F900121BBDFFAEF090031FEEF0A3EFF0900377
:105509001FE0B506EBA3E0B507E690031FE0FEA395
:02551900E0FFB1
:01551B00226D
:104F9B009002ADEBF0A3EAF0A3E9F0A3ECF0A3EDE4
:014FAB00F015
:104FAC00E4A3F0FFFE9002B1E024FFFD9002B0E01C
:104FBC0034FFFCC3EF9DEE9C50209002ADE0FBA3B0
:104FCC00E0FAA3E0F98F828E83121A74FD9002B27C
:0F4FDC00E02DF00FBF00010E80CB9002B2E0FF7E
:014FEB0022A3
:10524D0090030AEBF0A3EAF0A3E9F0A3ECF0A3EDD1
:10525D00F0124F9B90030AE0FBA3E0FAA3E0F99054
:10526D00030EE024FFFD90030DE034FF8D82F583E6
:0B527D00121A74B50703D38001C3228E
:104AD6009002B4EBF0A3EAF0A3E9F0A3ECF0A3EDA7
:014AE600F0DF
:104AE70074FF9002BAF0A3F09002B774FFF5F012CA
:104AF7001BA745F0604D9002BAE0FCA3E0FDEC90E7
:104B070002B9F0EDA3F0A3E4F09002B4E0FBA3E454
:104B170075F001121BA7A9F0FA121A37FF9002B914
:104B2700E06F75F002A424D3F582E5F03421F58314
:104B3700E493FE740193FF9002BAE06EF0A3E06F76
:0B4B4700F080A59002BAE0FEA3E0FFA2
:014B52002240
:104CAB009002ADEBF0A3EAF0A3E9F0A3ECF0A3EDD7
:014CBB00F008
:104CBC009002ADE0FBA3E0FAA3E0F9A3E0FCA3E0D3
:104CCC00FD24FEF58274FF3CF583121A74FE74FF0A
:104CDC002DF58274FF3CF583121A747C002400FFBE
:104CEC00EC3E9002B2F0A3EFF09002B1E024FEFD96
:104CFC009002B0E034FFFC124AD69002B2E0B50646
:0A4D0C0008A3E0B50703D38001C33C
:014D1600227A
:10562900E4FFEDD394004013121A376F9023D393FC
:0B563900FF740129F9E43AFA1D80E734
:015644002243
:0F44E8009002E2EBF0A3EAF0A3E9F0AB05AA041F
:1044F700E4A3F0EB4A60337C007D0AAF03AE0212FF
:104507001B3CED2430FF9002E5E0FE04F074E72E3B
:10451700F582E43402F583EFF07C007D0AAF03AE49
:1045270002121B3CAA06AB0780C9E49002E6F09092
:1045370002E5E0FFA3E0FEC39F5032EEFDC3EF9D0F
:10454700FFE49400FE74E62FF58274023EF583E0E3
:10455700FF9002E2E0FBA3E475F001121BA7A9F0AC
:10456700FAEF121AF69002E6E004F080C29002E237
:0C457700E0FBA3E0FAA3E0F9E4021AF66E
:10412C004A02D33F18767C596D6F387F794102D0A3
:06413C00004202D100C0A8
:0558780012587DD2A4CE
:06587D0000000000002203
:0F57F600C2A412587DD2A5125878C2A502587DC0
:0F580500C2A412587DC2A5125878D2A502587DB0
:1055B500E4FEC2A412587DEFA806088002C313D8E2
:0C55C500FC1392A51258780EEEB408E614
:0155D10022B7
:0958A1001257F61255B502580524
:0358CA000255B5CF
:0E5830001257F61258CAAF051255B5025805A8
:10551C007F401258A11257F67FC01258CAE4FDE41E
:10552C00FF1255B50DEDB410F61258057F800258D8
:01553C00A1CD
:105322007FB87E221243AE7D0F7FC41257757D0F68
:105332007FC51257757D0F7FC61257757D0F7FC7C8
:0F5342001257757D0F7FC81257757F3802578637
:1043AE00AB07AA06D3EB940FEA942740047A277B37
:1043BE000F7F441258A17C037DE8AF03AE02121B9F
:1043CE003C74D32FF58274023EF583E02480FD7F8A
:1043DE00C01258307C007D64AF03AE02121B3C7CD1
:1043EE00007D0A121B3C74D32DF58274023CF583BA
:1043FE00E02480FD7FC11258307C007D0AAF03AEF1
:10440E0002121B3C7C007D0A121B3C74D32DF582DC
:10441E0074023CF583E0FD7FC2125830AE02AF034A
:10442E007C007D0A121B3C74D32DF58274023CF580
:0D443E0083E0FD7FC31258307F8E0258A12D
:10495A009002DDE0FEA3E0FF7C0E7D10121B3CA35B
:10496A00EFF09002DDE0FEA3E0FF7C007D3C121B2D
:10497A003C9002E0EFF09002DDE0FEA3E0FF7C0055
:10498A007D3C121B3CAF059002E1EFF09002E0E0A3
:10499A0075F064A47C002DFFEC35F0FE1243AE9056
:1049AA0002E0E075F064A4FFA3E07C002FFFEC3581
:1049BA00F0FE7C037DE8121B3CEF4E70117F44121F
:0F49CA0058A17D807FC01258307F8E1258A122D5
:10577500AC077F441258A1AF041258307F8E0258EF
:01578500A182
:10578600AD077F441258A17FC91258307F8E025848
:01579600A171
:104E40007F441258A19002D1E0FEA3E0FFC394D0AA
:104E5000EE940050369002D0E0FDC39408501774D1
:104E600001A805088002C333D8FCFD125830900217
:104E7000D0E004F0801EE49002D0F09002D2E00472
:104E8000F070119002D1E004F080099002D1E4F0BA
:094E9000A374C0F07F8E0258A14A
:1053F600EF70028D99EFB4010CC0864386408DA1F3
:105406005386BFD086EFB4020EC086438640AF05F2
:085416008F915386BFD086225E
:10528800EF70069002A4E599F0EFB40110C08643D0
:1052980086409002A4E5A1F05386BFD086EFB40201
:1052A80010C0864386409002A4E591F05386BFD093
:0652B800869002A4E0FF55
:0152BE0022CD
:0B4C3D009002A9EBF0A3EAF0A3E9F05D
:104C4800900016121A74FF9002ACF0E92415F9E4EA
:104C58003AFAEF24FFFDE434FFFC124CAB92173014
:104C68001702D3229002A9E0FBA3E0FAA3E02415DF
:104C7800F9E43AFAA3E024FEFDE434FFFC124F9B6A
:104C88009002ACE02414FDE433FC9002A9E0FBA3FD
:104C9800E0FAA3E0F98D828C83121A74B50702D367
:024CA80022C325
:014CAA0022E7
:0B50C9009002A6EBF0A3EAF0A3E9F0D0
:1050D40090002F121A7460339002A6E0FBA3E0FA4A
:1050E400A3E0F9124C3D921630160E9002A6E0FB96
:1050F400A3E0FAA3E0F9123CC39002A6E0FBA3E00C
:0B510400FAA3E0F990002FE4121B0852
:01510F00227D
:0B4A58009002A0EBF0A3EAF0A3E9F04D
:104A630090002E121A7460589002A0E0FBA3E0FAA3
:104A7300A3E0F9900002121A74FF90002D74011242
:104A83001AC390002D121A74FEC39F9002A0E0FB7C
:104A9300A3E0FAA3E0F9501C121A37FFEEFD7C00E5
:104AA300E92401F9E43AFAE92DF9EC3AFA121A3752
:104AB300FD0253F690002DE4121B0890002E800E89
:104AC3009002A0E0FBA3E0FAA3E0F990002DE4122A
:024AD3001B08BE
:014AD50022BE
:0B3BE0009002A0EBF0A3EAF0A3E9F0D4
:103BEB00E4A3F0121A37FF1252889002A0E0FBA355
:103BFB00E0FAA3E0F9900029121A74700690002CD9
:103C0B00121B08900029741E121B0890002F121A09
:103C1B00746003023CC29002A0E0FBA3E0FAA3E0B5
:103C2B00F990002C121A74FE7008EF64A560030261
:103C3B003CC2EEB4010FEFD394145003EF70069017
:103C4B00002CE4806F9002A0E0FBA3E0FAA3E0F964
:103C5B0090002C121A74FD7C00E92415F9E43AFA51
:103C6B00E92DF9EC3AFAEF121AF69002A0E0FBA359
:103C7B00E0FAA3E0F990002C7401121AC390002C07
:103C8B00121A74FFC39402402E9002A0E0FBA3E033
:103C9B00FAA3E0F9900016121A749002A3F09002A6
:103CAB00A3E0FEEFC39E400F90002CE4121B089084
:073CBB00002F7401121B0829
:013CC20022DF
:10579700900029121A74600890002974FF121AC326
:0157A70022DF
:10574100ED121AF690002EE4121B0890002FE402CD
:025751001B0833
:044142004102350001
:103CC300121A3764026003023DA5900017121A749A
:103CD300FFB4FC0D90026A7455F090023674FAF04A
:103CE30022E490026AF0EF6441702F900267740738
:103CF300F0900018121A74900275F0900019121ABD
:103D030074900276F090001A121A74900277F09071
:103D1300001B121A74900278F022900017121A7482
:103D2300FF64476005EF64487078900018121A74B6
:103D3300900289F0900019121A7490028AF0900090
:103D43001A121A7490028BF090001B121A7475F0F9
:103D53000AA4FF90028CE5F0F0A3EFF090001C1290
:103D63001A7490028EF090001D121A7475F002A45A
:103D7300FF90028FE5F0F0A3EFF090001E121A748B
:103D830075F00AA4FF900291E5F0F0A3EFF0900024
:103D93001F121A74900293F0900020121A7490026A
:033DA30094F02277
:1030CA00900235E004F0C3940A5003023237E4F068
:1030DA00900267E06407600302316990023874A5C0
:1030EA00F0A3740DF0A37407F0A3740CF0A374405A
:1030FA00F090027BE0C454F0FF90027DE054014F4F
:10310A0090023DF0781FE6FFC41313135401A3F095
:10311A0090027CE090023FF0900298E0900240F02A
:10312A00A374FFF0A3F07B017A027938900239E0A8
:10313A0024FEFDE434FFFC124AD69002A6EEF0A368
:10314A00EFF09002A6E0FCA3E0FDEC900243F0ED64
:10315A00A3F09002657401F0E490026402322690B2
:10316A000267E06401700F90023874A5F0A3740836
:10317A00F0A374018013900267E064087050900213
:10318A003874A5F0A37408F0A3F0E4A3F0A3F0A3A5
:10319A00F07B017A027938900239E024FEFDE434AA
:1031AA00FFFC124AD69002A6EEF0A3EFF09002A618
:1031BA00E0FCA3E0FDEC90023EF0EDA3F090026586
:1031CA007401F0900237E0FFA3E0FD0253F690028B
:1031DA0067E06402705790023874A5F0A37408F08F
:1031EA00A374FCF0E4A3F0A3F0A3F07B017A0279C4
:1031FA0038900239E024FEFDE434FFFC124AD690EE
:10320A0002A6EEF0A3EFF09002A6E0FCA3E0FDEC2C
:10321A0090023EF0EDA3F09002657401F09002373F
:0D322A00E0FFA3E0FD1253F6E4900298F0DF
:013237002274
:105704009002687407F0A374D0F07B017A027937B1
:055714007D0202574177
:104146004101FC004101FD004201FE000041020068
:104156000041020100420202000041020400410245
:0A41660005004102060041020700B7
:10511000900210E0603D9001FCE0FF04F0EFC394CA
:10512000074007E4F043D901800553D9FEC2B5908A
:1051300001FDE0FF04F0EFC39407400CE4F0438668
:105140004043C1015386BF2243864053C1FE53866C
:03515000BFC28556
:015153002239
:102EAF00900210E070030230C990022BE06019907D
:102EBF000229E004F0E0C39432400DE490022BF0BD
:102ECF00900229F090020BF090022CE06006900225
:102EDF002AE004F090022FE064027047A3E064023E
:102EEF00704190022FF0A3F0A3E0FFC39403402A98
:102EFF00EFD394075024A3E0FFC3941E401CEFD3DD
:102F0F0094285016A3E0FFC39403400EEFD3940709
:102F1F00500890020B7401F08009E4900231F0A385
:102F2F00F0A3F030B45290022D7401F0A3E07003BF
:102F3F00022FC2E4900229F090022EF090022B048F
:102F4F00F0E4A3F090022FE0D394024004E4F08069
:102F5F000690022FE004F090022FE0FFB4010A90D8
:102F6F00022AE0900231F0804AEF6402704590022D
:102F7F002AE0900233F0803B90022E7401F0900211
:102F8F002DE0602FE490022AF090022DF09002299C
:102F9F00E0900232F090022C7401F0E490022BF0DA
:102FAF00900230E0D394024004E4F08006900230A7
:102FBF00E004F0900219E06019900217E004F0E0CD
:102FCF00C39432400DE4900219F0900217F0900272
:102FDF000DF090021AE06006900218E004F09002E3
:102FEF001DE064027047A3E06402704190021DF07F
:102FFF00A3F0A3E0FFC39403402AEFD39407502418
:10300F00A3E0FFC3941E401CEFD394285016A3E0F7
:10301F00FFC39403400EEFD39407500890020D7432
:10302F0001F08009E490021FF0A3F0A3F030865066
:10303F0090021B7401F0A3E070030230C9E4900208
:10304F0017F090021CF090021904F0E4A3F0900224
:10305F001DE0D394024004E4F0800690021DE004CA
:10306F00F090021DE0FFB40109900218E090021FDA
:10307F00F022EF64027043900218E0900221F022D8
:10308F0090021C7401F090021BE0602EE490021875
:10309F00F090021BF0900217E0900220F090021ABD
:1030AF007401F0E4900219F090021EE0D3940240F4
:0B30BF0003E4F02290021EE004F02267
:1055D200900004E4F5F0121CC4900002E4F5F0120D
:0D55E2001CC4900001E4121B08E4021AF63C
:1052BF00900002121BE8FFAEF0C3942CEE94014055
:1052CF00079000017414800EC3EF942CEE940150DC
:1052DF00089000017412121B08900002E4F5F0020E
:0252EF001CC4DD
:104EF200900002E475F001121C58900004E475F071
:104F020001121C58900002121BE8FFAEF0EE702353
:104F1200EF249C600F24CE6012249570169000013D
:104F22007401800C900001740580059000017406E4
:104F3200021B08D3EF94F4EE9401400B900002742C
:084F42000175F0F4121CC422F9
:1033A6007B017A0179FE1257E790020BE0FF601865
:1033B60090020DE06012900200E0700C7403F09031
:1033C60001FEE4F0A37432F0EF603390020DE0707A
:1033D60022900200E0FFB4020F9001FEE07002A30B
:1033E600E060059002018008EF6403600690020029
:1033F6007401F09001FEE4F0A37432F0801D900297
:1034060000E0B4031690020DE060109001FEE0703B
:1034160002A3E060069002017402F090020DE0FF44
:10342600603390020BE07022900200E0FEB4010FC0
:103436009001FEE07002A3E060059002018008EEB4
:10344600640360069002007402F09001FEE4F0A3AB
:103456007432F0801D900200E0B4031690020BE077
:1034660060109001FEE07002A3E060069002017415
:1034760001F090020BE0702BEF70287B017A027945
:1034860004125822900204E0D39402403E900201B6
:10349600E06005E4900200F0E4900201F0A3F0A3DE
:1034A600F08028E4900204F07B017A027902125738
:1034B6002DD3900203E094E8900202E09403400BBF
:1034C60090020174FFF0E4900200F0900201E0FF28
:0134D60022D3
:0B3F54009002A6EBF0A3EAF0A3E9F056
:103F5F001233A6900205E06F6004EFF0C3229002C7
:103F6F0007E0B4010CE4900206F0EF700DA3F080AF
:103F7F0009EF703B900206E070359002A6E0FBA3BC
:103F8F00E0FAA3E0F9E4121AF69002A6E0FBA3E030
:103F9F00FAA3E0F9900001E4121B08900004E4F585
:103FAF00F0121CC4900002E4F5F0121CC4C322EFFF
:103FBF00B4FF089002077401F08017EF701B900296
:103FCF0006E0FF9002A6E0FBA3E0FAA3E0F9EF12F0
:103FDF001AF6E4900206F0C322900206E06F9002F8
:103FEF00A6601EE0FBA3E0FAA3E0F9900002E4F55F
:103FFF00F0121CC4900206EFF0121AF69002A6807F
:0D400F0000E0FBA3E0FAA3E0F9124EF2D3AB
:01401C002281
:1054440001F800C001B401E400CC016C017C01C08E
:1054540001FC01EC0000019C01DC016C00000180F6
:0654640001E001F801FE69
:094170004202CE00004102BF0230
:0758B200AE071FEE70FA22A1
:10557900E4FEEF30E003D38001C392A7EFC313FF2A
:0D558900C2A60000D2A600000EEEB408E598
:0155960022F2
:104E9900C2C100007F03125579D2C10000C2C1000E
:104EA900007F40125579D2C10000C2C100007FC005
:104EB900125579E49002BCF09002BCE0FFC3940E55
:104EC900501774C02FF582E43402F583E0FF1255C0
:104ED900799002BCE004F080DFD2C10000C2C100B9
:084EE900007F8B125579D2C144
:014EF100229E
:1038FC00AB07AA06C3EB9410EA942740030239FAEB
:10390C0090029DE06014E49002C6F0A3F09002BF18
:10391C00E09002C8F0E4A3F0805F7C007D0AAF0366
:10392C00AE02121B3CED25E0FFEC33FE74442FF588
:10393C008274543EF583E493FE7401939002C6F0B6
:10394C00EEA3F07C007D0AAF03AE02121B3C7C00A0
:10395C007D0A121B3CED25E0FFEC33FE74442FF581
:10396C008274543EF583E493FC740193FF9002BF80
:10397C00E02F9002C8F0ECA3F090027EE060109073
:10398C0002BFE09002CAF0E4A3F0A3F0A3F0227C03
:10399C00007D64AF03AE02121B3C7C007D0A121B3F
:1039AC003CED25E0FFEC33FE74442FF58274543E5D
:1039BC00F583E493FC740193FF9002BFE02F900217
:1039CC00CAF0ECA3F07C037DE8AF03AE02121B3C03
:1039DC00EF25E0FFEE33FE74442FF58274543EF570
:0F39EC0083E493FE7401939002CCF0EEA3F022DB
:10458300AD07AC06ED540F25E0FFE433FE74442F72
:10459300F58274543EF583E493FE7401939002C64E
:1045A300F0EEA3F0ECC4F854F0C8EDC4540F485433
:1045B3000F25E0FFE433FE74442FF58274543EF577
:1045C30083E493FA740193FF9002BFE0F92F900202
:1045D300C8F0EAA3F0EC540F25E0FFE433FE744483
:1045E3002FF58274543EF583E493FA740193FFE943
:1045F3002F9002CAF0EAA3F0ECC4540F25E0FFE4C5
:1046030033FE74442FF58274543EF583E493FE74B1
:0A46130001939002CCF0EEA3F02218
:10537C00E49002C6F0A3F0EF25E02444F582E43477
:10538C0054F583E493FC7401939002C8F0ECA3F001
:0A539C00E4A3F0A3F0A3F0A3F022B5
:102C6A00AD07EF605A9002C2E05401F0A3E054FEAF
:102C7A00F0A3E05401F0A3E054FEF09002C0E05447
:102C8A0001F0A3E054FEF09002C0E054FEF090027E
:102C9A00C2E054FEF09002C4E054FEF09002C6E096
:102CAA0054FEF09002C8E054FEF09002CAE054FECE
:102CBA00F09002C6E054FDF09002CCE054FEF0ED34
:102CCA00B40A004003022EAE902CD9F828287302C9
:102CDA002CF7022D52022D64022D76022D88022D28
:102CEA009D022DCC022E09022E53022E539002C2AF
:102CFA00E05401F0A3E054FEF0A3E05401F0A3E095
:102D0A0054FEF09002C0E05401F0A3E054FEF090AB
:102D1A0002C0E054FEF09002C2E054FEF09002C4F9
:102D2A00E054FEF09002C6E054FEF09002C8E0546F
:102D3A00FEF09002CAE054FEF09002C6E054FDF0A4
:102D4A009002CCE054FEF0229002C2E04480F0A34C
:102D5A00E04401F0A3E0448080349002C2E044E001
:102D6A00F0A3E04401F0A3E044E080229002C2E034
:102D7A0044F8F0A3E04401F0A3E044F88010900284
:102D8A00C2E044FEF0A3E04401F0A3E044FEF0A355
:102D9A00022EA99002C2E044FEF0A3E04401F0A38F
:102DAA00E044FEF0A3E04401F09002C0E04480F069
:102DBA00A3E04401F09002C6E04402F09002CC0283
:102DCA002EA99002C2E044FEF0A3E04401F0A3E081
:102DDA0044FEF0A3E04401F09002C0E044E0F0A316
:102DEA00E04401F09002C8E04401F09002CAE044D5
:102DFA0001F09002C6E04402F09002CC022EA990A3
:102E0A0002C2E044FEF0A3E04401F0A3E044FEF075
:102E1A00A3E04401F09002C0E044F8F0A3E04401CA
:102E2A00F09002C4E04401F09002C6E04401F09040
:102E3A0002C8E04401F09002CAE04401F09002C6E0
:102E4A00E04402F09002CC80569002C2E044FEF0C8
:102E5A00A3E04401F0A3E044FEF0A3E04401F090B3
:102E6A0002C0E044FEF0A3E04401F09002C0E04456
:102E7A0001F09002C2E04401F09002C4E04401F083
:102E8A009002C6E04401F09002C8E04401F09002CA
:102E9A00CAE04401F09002C6E04402F09002CCE09D
:052EAA004401F02222AA
:10548F00E49002BDF09002BDE0FFC3940E5014747F
:10549F00C02FF582E43402F583E4F09002BDE004FE
:0354AF00F080E2A8
:0154B20022D7
:10546A00E49002BEF09002BEE0FFC3940E501574A1
:10547A00C02FF582E43402F58374FFF09002BEE097
:04548A0004F080E1C9
:01548E0022FB
:0A589700A9051238FCAF01022C6ACB
:1057B8009002BFE06003E4F0229002BF7402F0227E
:10515400A2AF9216C2AF75A70175F2E675F3057595
:10516400F40A75F509900304E0B4550CEF25E0F555
:10517400F775F60600000000E4900304F0F5F2F57C
:0F518400F3F5F4F5F5F5F6F5F7F5A7A21692AFEA
:0151930022F9
:0B49D9009002A9EBF0A3EAF0A3E9F0C4
:1049E400A2AF9216C2AF75A701E4FCECC39D504C74
:1049F4009002ADE0FEA3E0F5FBEEF5F79002A9E02E
:104A0400FBA3E475F001121BA7A9F0FA121A37F5FB
:104A1400FC75F26E75F30575F40A75F509900304D7
:104A2400E0B4551875F606000000009002AEE004EC
:104A3400F070069002ADE004F00C80AFE490030443
:104A4400F0F5F2F5F3F5F4F5F5F5F6F5F7F5A7A2BB
:034A54001692AF08
:014A5700223C
:104D81009003047455F0E4FF125154900299A3E08A
:104D9100FDA3A3E4FFFEE4FC7810121DDD900306E1
:104DA100EFF0900299A3A3E0FEA3E4FFE4FDFC78F9
:104DB10008121DDD900307EFF0900299E0FCA3A318
:104DC100E0FEA3E0FF900308EFF09003047455F0B8
:104DD1007B017A0379069002ADE4F0A37410F07DB3
:044DE100030249D9A7
:10444B007F03E49002A6F0A3F0A37410F0A3740111
:10445B00F0A37403F0A37406F075A701E4FEEEC39A
:10446B009F50299002A7E475F001121BA785F082DB
:10447B00F583E493FD9002A9E0FBA3E475F0011230
:10448B001BA7A9F0FAED121AF60E80D2E4F5A7904D
:10449B000307E0FFE4FCFDFEE47808121DF0C00406
:1044AB00C005C006C007900306E0FFE4FCFDFEE478
:1044BB007810121DF0D003D002D001D000EF4BFBCF
:1044CB00EE4AFAED49F9EC48F8900308E0FFEB4FA0
:0D44DB00FFEAFEE9FDE8FC900299021E03D5
:1055EF009003047455F07F011251549003047455C5
:0D55FF00F09002AD7402F0A3E4F00249D96F
:0B5039009002A6EBF0A3EAF0A3E9F060
:10504400A37402F0A3E4F075A701FFEFC39D5029F8
:105054009002A9E475F001121BA785F082F583E4A0
:1050640093FE9002A6E0FBA3E475F001121BA7A92E
:0C507400F0FAEE121AF60F80D2E4F5A755
:01508000220D
:10560C009003047455F07F021251549003047455A6
:0D561C00F09002AD7404F0A3E4F00249D94F
:0B5081009002A6EBF0A3EAF0A3E9F018
:10508C00A37404F0A3E4F075A701FFEFC39D5029AE
:10509C009002A9E475F001121BA785F082F583E458
:1050AC0093FE9002A6E0FBA3E475F001121BA7A9E6
:0C50BC00F0FAEE121AF60F80D2E4F5A70D
:0150C80022C5
:103DA60016151413080B090A070605040302010079
:103DB60001EF01FC020501F901F801E001E101FB57
:103DC6000221020101F1021B022A023A0223021019
:103DD60000930098009A0097009700900090009733
:103DE60000A30099009400A000A500AA00A3009ECD
:103DF60001EF021301F0020A01FC01F201DD0201EA
:103E0600021101FF01FE02110215020D021F01E758
:103E16000093009E0094009C00980094008E0099E8
:103E2600009E00980098009E009F009D00A20091B1
:103E360000320032003200320032003200320032EC
:103E460000320032003200320032003200320032DC
:103E560000320032003200320032003200320032CC
:103E660000320032003200320032003200320032BC
:103E76001E1E1E1E1E1E1E1E1E1E1E1E1E1E1E1E5C
:1041790050009C000000000000000000000000004A
:104189000000005000FC00000000000000000000DA
:0641990000000000000020
:03000B00023E862C
:103E8600C0E0C0F0C083C082C0D075D000C000C002
:103E960001C002C003C004C005C006C007C08675C5
:103EA6008600E5C730E45775C700900063E004F06C
:103EB600E0FFC39410400CE4F09001FAF0A3F0D2B6
:103EC6000F806E30070F75CF0AEF25E02436F58296
:103ED600E4343E801075CF12900063E025E024564E
:103EE600F582E4343EF583E493FC740193FDECF52E
:103EF600C68DC51257C81235E943C1208033300537
:103F06000E9001FBE004F070069001FAE004F0E583
:103F1600C730E606C202D20E8014E5C730E306C2F9
:103F260002D2018009E5C730E504C202D20B75C78B
:103F360000D086D007D006D005D004D003D002D05A
:0E3F460001D000D0D0D082D083D0F0D0E032B5
:1032380090000D7410F0D20DD203D207D20C900179
:10324800D2743DF0A374B6F09001E67401F0A37453
:1032580084F0900000743DF0A374D6F090011574CA
:1032680000F0A374ACF09001137400F0A3749CF008
:103278009001D07401F0A3746AF09001107400F00A
:10328800A374CCF09001CE7401F0A3745AF09000AE
:10329800027401F0A374D4F0A37408F090010D74C3
:1032A80005F0A374DCF09001397483F090017E740A
:1032B80004F090000EF0900010F0A37402F090015A
:1032C800A47408F0A37405F0900118F090009674A7
:1032D80014F09001E47401F0A374F4F09000057404
:1032E80007F0A374D0F090000F7403F090010F74EE
:1032F8000AF0900012741EF09001E87403F0A374B1
:1033080020F090009B7403F09001CD740AF09000B7
:1033180095741EF09001837403F09000747428F083
:103328009000077405F0A3E4F0D205C20290006390
:10333800F09001C9121E0F00000000E49002A6F0F0
:103348009002A6E0FFC394105011EF903DA693FFA2
:103358001234D79002A6E004F080E5903DA6E493ED
:10336800FF1235F21251D343C280E5C254FC440324
:10337800F5C243C24053CE3F43CE8053CEF343CE33
:103388000453C1FC53C1F7E5CE54CF4430F5CEE524
:0D339800CE54FC4403F5CE43A80243C1808F
:0133A5002205
:0935E900900063E0903DA693FF01
:1035F200EFB4180040030236F1903602F82828731F
:1036020002364A02365102365802365F02366602E6
:10361200366D02367402367B0236820236890236F3
:103622009002369702369E0236A50236AC0236B3B7
:103632000236BA0236C10236C80236CF0236D60286
:1036420036DD0236E40236EB43BD0143C9012243B3
:10365200BD0243C9022243BD0443C9042243BD083B
:1036620043C9082243BD1043C9102243BD2043C9A8
:10367200202243BD4043C9402243BD8043C980222A
:1036820043BC0143CA012243BC0243CA022243BCD7
:103692000443CA042243BC0843CA082243BC104361
:1036A200CA102243BC2043CA202243BC4043CA4022
:1036B2002243BF0143CA802243BF0243CB012243BC
:1036C200BF0443CB022243BF0843CB042243BE20A4
:1036D20043CB082243BE1043CB102243BE0843CB48
:1036E200202243BE0443CB402243BE0243CB80226E
:1034D700EFB4180040030235E89034E7F828287362
:1034E70002352F02353602353D02354402354B028F
:1034F700355202355902356002356702356E02359D
:103507007502357C02358302358A0235910235987A
:103517000235A30235AE0235B90235C60235CD02F2
:1035270035D40235DB0235E243E2015390FE2243F4
:10353700E2025390FD2243E2045390FB2243E20848
:103547005390F72243E2105390EF2243E220539027
:10355700DF2243E2405390BF2243E28053907F2211
:1035670043E1015380FE2243E1025380FD2243E100
:10357700045380FB2243E1085380F72243E11053B1
:1035870080EF2243E1205380DF2243E1405380BF95
:103597002275864043E101438001801F75864043C1
:1035A700E102438002801475864043E1045380FBA7
:1035B700800975864043BF085380F7E4F5862243A8
:1035C700E52053C0DF2243E51053C0EF2243E5084F
:1035D70053C0F72243E50453C0FB2243E50253C01F
:0235E700FD22C3
:1057C800E4F5C9F5CAF5CBF5BCF5BDF5BEF5BF22C4
:1051D300E4F5C3F5C41257C81235E930071275CF89
:1051E3000A900063E025E02436F582E4343E801023
:1051F30075CF12900063E025E02456F582E4343E37
:0F520300F583E493FC740193FDECF5C68DC52291
:0458BF0043C120229F
:0458C30053B1782243
:10569500D39001FBE094329001FAE094004009C2F6
:0956A50005D209E490010CF02289
:0C584A003005031224D3200502C20922FD
:10559700300B04C20BC202200E03300106C20EC23A
:0E55A70001C202200207D202C20F1258BF2218
:10564500125597300F15C202C20F200905120086A8
:0C56550080031251D312584A12559722BC
:10535100D2053005201258C320020AD202C20F1210
:1053610051D31258BF300F08C2023005031224D3A3
:0B53710012569580DD300902D20522A3
:1037F8009001D220070302387E743DF0A374B6F01E
:103808009001E67401F0A37484F0900000743DF018
:10381800A374D6F09001157400F0A374ACF0900175
:10382800137400F0A3749CF09000997400F0A374D2
:1038380013F09001C77401F0A37419F09001D074CB
:1038480001F0A3746AF09001107400F0A374CCF036
:103858009001CE7401F0A3745AF09000027401F044
:10386800A374D4F09000977400F0A37433F0900020
:10387800047408F0807B743DF0A374F6F09001E6C0
:103888007401F0A374A7F0900000743EF0A37416BE
:10389800F09001157400F0A374DCF090011374002B
:1038A800F0A374FCF09000997400F0A37443F090B6
:1038B80001C77401F0A3743AF09001D07401F0A329
:1038C800747FF09001107400F0A374CCF09001CED6
:1038D8007401F0A3746EF09000027401F0A374EA0E
:1038E800F09000977400F0A37433F090000474090A
:0438F800F00251D3B6
:1024D30090010CE0700FC207C20C1237F8E49000B1
:1024E30063F002275D9001CDE0FF90010CE06F6087
:1024F3000302261D900007E0FFA3E09002A8CFF09F
:10250300A3EFF0E49002A6F090000DE0FF9002A686
:10251300E0F9C39F4003022613E9903DA69325E00B
:102523009002A7F0E0FFA3E0FAA3E0FB2FF582E41B
:102533003AF583E0FD9002AAE4F0A3EDF0EB2FF56A
:1025430082E43AF583A3E0FE9002ABE02400F0902E
:1025530002AAE03EF0E0FEA3E0FF900099E0FCA3B6
:10256300E0F5828C8375F002E9121E40EEF0A3EFD2
:10257300F09002AAE0FEA3E0FF9002A6E0FD25E0B2
:102583002443F582E43400F583EEF0A3EFF0ED2568
:10259300E0243AF582E43401F583EEF0A3EFF09002
:1025A30001E6E0FCA3E0F5828C83C083C082900245
:1025B300A6E0FDD082D08375F002121E40EEF0A398
:1025C300EFF0ED25E024A7F582E43401F583EEF086
:1025D300A3EFF0900115E0FCA3E0F5828C83C083A8
:1025E300C0829002A6E0FDD082D08375F002121E55
:1025F30040EEF0A3EFF0ED25E024DCF582E43400B7
:10260300F583EEF0A3EFF09002A6E004F002250BB1
:10261300D207D20C1237F802275D9001CDE025E0F6
:10262300FFE433FE90010CE0C39FEE6480F87480F6
:1026330098500302275D900007E0FFA3E09002A8F3
:10264300CFF0A3EFF0E49002A6F090000DE0FF902E
:1026530002A6E0F9C39F4003022755E9903DA693E4
:1026630025E09002A7F0E0FFA3E0FAA3E0FB2FF53B
:1026730082E43AF583E0FD9002AAE4F0A3EDF0EBE7
:102683002FF582E43AF583A3E0FE9002ABE0240049
:10269300F09002AAE03EF0E0FEA3E0FF900099E094
:1026A300FCA3E0F5828C8375F002E9121E40EEF084
:1026B300A3EFF09002AAE0FEA3E0FF9002A6E0FDE4
:1026C30025E02413F582E43400F583EEF0A3EFF064
:1026D300ED25E02419F582E43401F583EEF0A3EF50
:1026E300F09001E6E0FCA3E0F5828C83C083C08216
:1026F3009002A6E0FDD082D08375F002121E40EE58
:10270300F0A3EFF0ED25E02484F582E43401F583B2
:10271300EEF0A3EFF0900115E0FCA3E0F5828C83CB
:10272300C083C0829002A6E0FDD082D08375F00200
:10273300121E40EEF0A3EFF0ED25E024ACF582E4A9
:102743003400F583EEF0A3EFF09002A6E004F0026C
:10275300264D90010C74FFF0C20590010CE004F0CB
:012763002253
:10008600900011E020E303020222E49002B9F0A3FB
:10009600F09002AAF090000DE0FF9002AAE0C39F44
:1000A60040030201E99001E6E0FEA3E0F5828E83BB
:1000B600C083C0829002AAE0FFD082D08375F0028E
:1000C600121E40E0FCA3E0FD900099E0FAA3E0F5E3
:1000D600828A8375F002EF121E40E0FEA3E0FFD392
:1000E6009DEE9C40269001E6E0FCA3E0F5828C8321
:1000F600C083C0829002AAE0D082D08375F002123B
:100106001E40E0FCA3E0FDC3EF803A900099E0FEBC
:10011600A3E0F5828E83C083C0829002AAE0FFD05E
:1001260082D08375F002121E40E0FCA3E0FD900130
:10013600E6E0FAA3E0F5828A8375F002EF121E402C
:10014600E0FEA3E0C39DFFEE9C9002ACF0A3EFF0AF
:10015600900000E0FEA3E0F5828E83C083C082900B
:1001660002AAE0D082D08375F002121E40E493FC0E
:10017600740193FD9001A4E0FF7E00121B2A7C000F
:100186007D0A121B3C9002ACE0FAA3E0FBD39FEA87
:100196009E40059002B9803F900000E0FEA3E0F586
:1001A600828E83C083C0829002AAE0D082D08375FB
:1001B600F002121E40E493FC740193FD9001A5E049
:1001C600FF7E00121B2A7C007D0A121B3CC3EB9F9C
:1001D600EA9E50069002BAE004F09002AAE004F00B
:1001E60002009B200017900118E014FF9002B9E06E
:1001F600D39F402AD200E49001A6F0802190000D02
:10020600E0C313FF9002BAE0D39F40129001A6E02C
:1002160004F0E0D394034006C2008002C2009000BE
:1002260007E0FFA3E09002A8CFF0A3EFF0E490016F
:1002360017F0900112F09002B0F0C20A900004E0AC
:10024600F8E6D394004004D2168002C216E4900267
:10025600AAF090000DE0FF9002AAE0FEC39F4003C3
:100266000210E4900110E0FCA3E02EF582E43CF5D8
:1002760083E0FA540F9002B9F0900097E0FCA3E0F7
:100286002EF582E43CF583E0FB540F9002BAF03081
:10029600070EEAC4540F9002B9F0EBC4540FA3F052
:1002A6009002AAE0F9903DA69325E09002ABF0E01B
:1002B600FF9002A8E0FAA3E0FB2FF582E43AF5836B
:1002C600E0FD9002A6E4F0A3EDF0EB2FF582E43A10
:1002D600F583A3E0FE9002A7E02400F09002A6E0DA
:1002E6003EF03008030205BD9001E6E0FEA3E0F50E
:1002F600828E8375F002E9121E40E0FEA3E0FF90B5
:10030600010DE0FCA3E0FDEF2DFFEE3CFE9002A602
:10031600E0FAA3E0D39FEA9E402A9002AAE0FF24D7
:1003260064F582E43400F583E0C3940A506A9001D0
:1003360039E030E16374642FF582E43400F583E03C
:1003460004F080549001E6E0FEA3E0F5828E83C0BF
:1003560083C0829002AAE0F9D082D08375F002129F
:100366001E40E0FEA3E02DFBEE3CFAEDAE04780362
:10037600CEC313CE13D8F9FFC3EB9FFFEA9EFE90C0
:1003860002A6E0FCA3E0D39FEC9E500C746429F512
:1003960082E43400F583E4F09001E6E0FEA3E0F5A4
:1003A600828E83C083C0829002AAE0FFD082D0836F
:1003B60075F002121E40E0FCA3E0FD9001E8E0FAB1
:1003C600A3E0FBED2BFDEC3AFC9002A6E0FAA3E0DD
:1003D600D39DEA9C401B900139E020E103E4800DA7
:1003E60074642FF582E43400F583E070049002B95A
:1003F600F0900000E0FEA3E0F5828E83C083C08209
:100406009002AAE0FFD082D08375F002121E40E46B
:1004160093FC740193FD9001E6E0FAA3E0F5828A6D
:100426008375F002EF121E40E0FEA3E02DFFEE3CC6
:10043600FE9001D2E0FCA3E0F5828C83C083C082EB
:100446009002AAE0FDD082D08375F002121E40E42D
:1004560093FA7401932FFFEA3EFE9002A6E0FAA3F8
:10046600E0D39FEA9E4068900000E0FEA3E0F5829C
:100476008E8375F002ED121E40E493FE740193FF25
:100486009001E6E0FAA3E0F5828A8375F002ED12A8
:100496001E40E0FCA3E02FFFEC3EFE9001D2E0FC04
:1004A600A3E0F5828C83C083C0829002AAE0D0824A
:1004B600D08375F002121E40E493FC7401932FFF63
:1004C600EC3E9002A6F0A3EFF09001120205B89060
:1004D6000000E0FEA3E0F5828E83C083C082900216
:1004E600AAE0FFD082D08375F002121E40E493FC8E
:1004F600740193FD9001E6E0FAA3E0F5828A837524
:10050600F002EF121E40E0FEA3E0C39DFFEE9CFE4C
:100516009001D2E0FCA3E0F5828C83C083C0829078
:1005260002AAE0FDD082D08375F002121E40E49349
:10053600FA740193FBC3EF9BFFEE9AFE9002A6E0CE
:10054600FAA3E0C39FEA9E506E900000E0FEA3E08F
:10055600F5828E8375F002ED121E40E493FE74015F
:1005660093FF9001E6E0FAA3E0F5828A8375F00234
:10057600ED121E40E0FCA3E0C39FFFEC9EFE90013F
:10058600D2E0FCA3E0F5828C83C083C0829002AAED
:10059600E0D082D08375F002121E40E493FC740111
:1005A60093FDC3EF9DFFEE9C9002A6F0A3EFF090A3
:1005B6000117E004F0D20A900115E0FEA3E0F582EF
:1005C6008E83C083C0829002AAE0D082D08375F069
:1005D60002121E40E0FEA3E0FF9002AEEEF0A3EF93
:1005E600F0E4FCFD9002B5121E039002B5E0F8A3FC
:1005F600E0F9A3E0FAA3E0FB9002A6E0FEA3E0FF89
:10060600E4FCFDEB2FFFEA3EFEED39FDEC38FC90F5
:1006160002B5121E039002B5E0F8A3E0F9A3E0FAD2
:10062600A3E0FB900099E0FEA3E0F5828E83C083F1
:10063600C0829002AAE0D082D08375F002121E40DA
:10064600E0FEA3E0FFE4FCFDEB2FFFEA3EFEED3902
:10065600FDEC38FC9002B5121E039002B5E0F8A33B
:10066600E0F9A3E0FAA3E0FB9001C7E0FEA3E0F502
:10067600828E83C083C0829002AAE0D082D0837526
:10068600F002121E40E0FEA3E0FFE4FCFDEB2FFFAC
:10069600EA3EFEED39FDEC38FC9002B5121E0390E1
:1006A60002B5E0FCA3E0FDA3E0FEA3E0FF780212A2
:1006B6001DDD900115E0FCA3E0FDF5828C83C0836F
:1006C600C0829002AAE0FBD082D08375F002121E8F
:1006D60040EEF0A3EFF09001D2E0FEA3E0F5828EAB
:1006E6008375F002EB121E40E493FE7401937802C8
:1006F600CEC313CE13D8F9FF8D828C8375F002EB2F
:10070600121E40E0FCA3E0C39FFFEC9ECF2488CFDF
:1007160034FFFE9002AEE0FCA3E0C39FEC9E500CBB
:10072600A20D300C01B34002B20DD20A9001D2E004
:10073600FEA3E0F5828E83C083C0829002AAE0FD0C
:10074600D082D08375F002121E40E493FE740193AA
:100756007802CEC313CE13D8F9FF900115E0FAA3A1
:10076600E0F5828A8375F002ED121E40E0FCA3E0FC
:100776002FFFEC3ECF243CCF3400FE9002AEE0FCCF
:10078600A3E0D39FEC9E400CA20D300C01B34002B7
:10079600B20DD20A300A0302085C9001C7E0FEA33C
:1007A600E0F5828E83C083C0829002AAE0FBD082ED
:1007B600D08375F002121E40E0FEA3E0FF9002A671
:1007C600E0FCA3E0FDEF2DFFEE3CFEE4FCFD900215
:1007D600B1121E03900099E0FEA3E0F5828E8375A8
:1007E600F002EB121E40E0FEA3E025E0FFEE33FE32
:1007F600E4FCFD9002B5121E039002B1A3A3E0FE35
:10080600A3E0FBAA06A3A3A3E0FEA3E0C39BFFEE1F
:100816009AFE1258569001D2E0FCA3E0F5828C8332
:10082600C083C0829002AAE0D082D08375F0021203
:100836001E40E493FC740193C39FEC9E5018A20DD6
:10084600300C01B34002B20DD20A900011E030E53F
:1008560005E49002B9F0900099E0FEA3E0FFF5826E
:100866008E83C083C0829002AAE0F9D082D08375BD
:10087600F002121E40E0FCA3E0FD9001C7E0FAA3DF
:10088600E0F5828A8375F002E9121E40ECF0A3EDD2
:10089600F09002A6E0FCA3E0FD8F828E8375F00245
:1008A600E9121E40ECF0A3EDF09001E6E0FEA3E0B5
:1008B600F5828E8375F002E9121E40E0FEA3E0FF8A
:1008C600900115E0FCA3E0F5828C8375F002E91235
:1008D6001E40E0FCA3E0D39FEC9E5003020C329036
:1008E60002AAE0FF900002E0FCA3E02FF582E43CC0
:1008F600F583E054F0F09001CEE0FCA3E02FF58202
:10090600E43CF583E0540FF0E49002BAF09001E67F
:10091600E0FEA3E0F5828E83C083C0829002AAE047
:10092600FFD082D08375F002121E40E0FCA3E0FDEA
:10093600900115E0FAA3E0F5828A8375F002EF12C2
:100946001E40E0FEA3E0C39DFFEE9CFE9002ACF0CD
:10095600A3EFF0900000E0FCA3E0F5828C83C08357
:10096600C0829002AAE0F9D082D08375F002121EEE
:1009760040E493FC740193C39FEC9E4003020A87F4
:100986009002AAE0FF900002E0FCA3E02FF582E4CB
:100996003CF583E0540FF09001CEE0FCA3E02FF588
:1009A60082E43CF583E054F0F090009BE0FD900279
:1009B600B9E0C39D4003020A7F900011E020E003E6
:1009C600020A79201603020A779002AAE0FF24643D
:1009D600F582E43400F583E06003020A779001159E
:1009E600E0FAA3E0F5828A8375F002EF121E40E07A
:1009F600FEA3E0240AFFE43EFE9002AEE0FAA3E086
:100A0600D39FEA9E40639001D2E0FEA3E0F5828E7A
:100A160083C083C0829002AAE0FCD082D08375F0A6
:100A260002121E40E493FE7401937802CEC313CEE5
:100A360013D8F9FF900115E0FAA3E0F5828A8375D1
:100A4600F002EC121E40E0FAA3E02FFFEA3EFE9011
:100A56000012E07A002FFFEA3EFE9002AEE0FAA313
:100A6600E0C39FEA9E5002800AE49002B9F0020FAA
:100A76004D80009002B9020C1C9002B9EDF0020FF5
:100A86004DE49002B9F09002AAE0FF900002E0FC6B
:100A9600A3E02FF582E43CF583E02410F0900115E5
:100AA600E0FCA3E0F5828C8375F002EF121E40E0B5
:100AB600FEA3E0240CFFE43EFE9002AEE0FCA3E0C1
:100AC600D39FEC9E40129001CEE0FEA3E029F58272
:100AD600E43EF583E054F0F09002AAE0FF900002B5
:100AE600E0FCA3E0FD2FF582E43CF583E0C4540F5F
:100AF600640F7030900004E0F8E670199001E6E0AB
:100B0600FAA3E0F5828A8375F002EF121E40E475BF
:100B1600F001121B919002AAE02DF582E43CF583C8
:100B2600E0540FF0900000E0FEA3E0F5828E83C053
:100B360083C0829002AAE0FBD082D08375F00212B5
:100B46001E40E493FE740193FF7C007D05121B2A70
:100B5600EEC4F854F0C868FEEFC4540F48FF900284
:100B6600ACE0FCA3E0D39FEC9E5003020C22900164
:100B7600CEE0FEA3E02BF582E43EF583E0540FFFC2
:100B8600900183E0FEEFC39E4079900004E0F8E612
:100B96006003020C22900000E0FEA3E0F5828E8343
:100BA600C083C0829002AAE0FDD082D08375F00295
:100BB600121E40E493FE7401937803CEC313CE1342
:100BC600D8F9FF900115E0FAA3E0F5828A8375F063
:100BD60002ED121E40E0FCA3E0C39FFFEC9EFE90D8
:100BE60001E6E0FCA3E0F5828C83C083C08290021C
:100BF600AAE0D082D08375F002121E40EEF0A3EF79
:100C0600F080199002AAE0FF9001CEE0FCA3E02F4D
:100C1600F582E43CF583E004F0020F4D9002AAE071
:100C2600FF9001CEE0FCA3E02F020F439002AAE062
:100C3600FF900002E0FCA3E02FF582E43CF583E0A0
:100C4600540FF0900115E0FCA3E0F5828C8375F05B
:100C560002EF121E40E0FEA3E0FF9001E6E0FCA3D7
:100C6600E0F5828C83C083C0829002AAE0FDD08228
:100C7600D08375F002121E40E0FAA3E0C39FFFEA9C
:100C86009E9002ACF0A3EFF0E49002B9F09001CE92
:100C9600E0FEA3E02DF582E43EF583E054F0F0900B
:100CA6000000E0FEA3E0F5828E83C083C08290023E
:100CB600AAE0FFD082D08375F002121E40E493FCB6
:100CC600740193FD9002ACE0FAA3E0D39DEA9C5038
:100CD60003020DFBE49002BAF0900115E0FCA3E0DC
:100CE600F5828C8375F002EF121E40E0FEA3E0242D
:100CF600F6FFEE34FFFE9002AEE0FCA3E0C39FECED
:100D06009E50779001D2E0FEA3E0F5828E83C083E9
:100D1600C0829002AAE0FDD082D08375F002121E36
:100D260040E493FE7401937802CEC313CE13D8F930
:100D3600FF900115E0FAA3E0F5828A8375F002EDD3
:100D4600121E40E0FCA3E0C39FFFEC9ECF24C4CF5D
:100D560034FFFE9002AEE0FCA3E0D39FEC9E401A67
:100D66009002AAE0FF9001CEE0FCA3E02FF582E41A
:100D76003CF583E02410F0020F4D9002AAE0FF90AC
:100D860001CEE0FCA3E02FF582E43CF583E0540FAE
:100D9600F0900004E0F8E66003020F4D9001E6E0F3
:100DA600FCA3E0F5828C8375F002EF121E40C0832F
:100DB600C082E0FCA3E0FD900000E0FEA3E0F58227
:100DC6008E83C083C0829002AAE0D082D08375F061
:100DD60002121E40E493FE7401937803CEC313CE31
:100DE60013D8F9FFC3ED9FFFEC9ED082D083F0A30A
:100DF600EFF0020F4D9002AAE0FF9001CEE0FCA3B7
:100E0600E02FF582E43CF583E0540FF0900002E019
:100E1600FCA3E02FF582E43CF583E004F0900000AB
:100E2600E0FEA3E0F5828E83C083C0829002AAE032
:100E3600FBD082D08375F002121E40E493FE74014B
:100E460093FF7C007D05121B2AEEC4F854F0C86897
:100E5600FEEFC4540F48FF9002ACE0FCA3E0D39F22
:100E6600EC9E5003020EFD900002E0FEA3E02BF57F
:100E760082E43EF583E054F0F090000FE0FF90022C
:100E8600BAE0C39F4069900004E0F8E670699001FB
:100E9600E6E0FEA3E0F5828E83C083C0829002AABC
:100EA600E0D082D08375F002121E40C083C082E07B
:100EB600FCA3E0FD900000E0FEA3E0F5828E83C077
:100EC60083C0829002AAE0D082D08375F002121EFF
:100ED60040E493FE740193FFEEC313FEEF13FFC3CA
:100EE600ED9FFFEC9ED082D083F0A3EFF0800890B8
:100EF60002BAE004F08005E49002BAF09002AAE09B
:100F0600FF900002E0FCA3E0FD2FF582E43CF583B0
:100F1600E0540F640F7030900004E0F8E67019900A
:100F260001E6E0FAA3E0F5828A8375F002EF121E6D
:100F36004074FFF5F0121B919002AAE02DF582E4B1
:100F46003CF583E054F0F09002B9E0D394014003FD
:100F560002101E900115E0FEA3E0F5828E83C08389
:100F6600C0829002AAE0D082D08375F002121E40A1
:100F7600E0FEA3E0FF9002AEE0FCA3E0C39FFFEC1F
:100F86009EFE125856900095E0FDC3EF9D7480F8C2
:100F96006E98506E9002AAE0FF900113E0FCA3E069
:100FA600FD2FF582E43CF583E004F0ED2FF582E4B5
:100FB6003CF583E0FF900074E02432FDE433FCEF5F
:100FC6006D7001EC7052900115E0FEA3E0F5828E83
:100FD60083C083C0829002AAE0FFD082D08375F0DE
:100FE60002121E40E0FCA3E0FD9001E6E0FAA3E059
:100FF600F5828A8375F002EF121E40ECF0A3EDF045
:1010060080009002AAE0FF900113E0FCA3E02FF518
:1010160082E43CF5837432F09002AAE0FF9001105E
:10102600E0FCA3E0FD2F300756F582E43CF583E0B3
:10103600540FF0ED2FF582E43CF583C083C082E0C7
:10104600FF9002B9E0C454F0FEEF4ED082D083F098
:101056009002AAE0FF900097E0FCA3E0FD2FF58246
:10106600E43CF583E0540FF0ED2FF582E43CF58384
:10107600C083C082E0FF9002BAE0C454F0804EF50F
:1010860082E43CF583E054F0F0ED2FF582E43CF584
:1010960083C083C082E0FF9002B9E0FEEF4ED082AB
:1010A600D083F09002AAE0FF900097E0FCA3E0FD59
:1010B6002FF582E43CF583E054F0F0ED2FF582E461
:1010C6003CF583C083C082E0FF9002BAE0FEEF4E9B
:1010D600D082D083F09002AAE004F0020258E49095
:1010E60002AAF090000DE0FF9002AAE0FEC39F4026
:1010F6000302124A9001CEE0FCA3E02EF582E43C06
:10110600F583E0C4540FFF90010FE0FEEFC39E404D
:1011160051900115E0FEA3E0F5828E83C083C08264
:101126009002AAE0FFD082D08375F002121E40E042
:10113600FCA3E0FD9001E6E0FAA3E0F5828A837560
:10114600F002EF121E40ECF0A3EDF09002AAE0FFD1
:101156009001CEE0FCA3E02FF582E43CF583E05459
:101166000FF09002AAE0FF900110E0FCA3E02FF53B
:1011760082E43CF583E0FF540F9002B9F030070596
:10118600EFC4540FF090009BE014FF9002B9E0D337
:101196009F405B9001D0E0FEA3E0F5828E83C08382
:1011A600C082E0F8A3E0F9A3E0FAA3E0FBC000C028
:1011B60001E47F01FEFDFC9002AAE0F9F8121DF0A1
:1011C600D001D000EB4FFFEA4EFEE94DFDE84CFCA6
:1011D600D082D083121E039002AAE0FF900113E092
:1011E600FCA3E02FF582E43CF583E4F0804D900209
:1011F600B9E070479001D0E0FEA3E0F5828E83C08F
:1012060083C082E0F8A3E0F9A3E0FAA3E0FBC00004
:10121600C001E47F01FEFDFC9002AAE0F9F8121D70
:10122600F0121DBFD001D000EB5FFFEA5EFEE95D64
:10123600FDE85CFCD082D083121E039002AAE00473
:10124600F00210E9900139E020E70302144BE49024
:1012560002AAF090000DE0FF9002AAE0FEC39F40B4
:101266000302146F900011E020E10302136D900059
:1012760096E0FDEE25E02475F582E43400F583E082
:10128600FEA3E0C39DEE94004003021335E47F0104
:10129600FEFDFC9002AAE0F9F8121DF090016AE04A
:1012A600F8A3E0F9A3E0FAA3E05FFFEA5EFEE95DDA
:1012B600FDE85CFCE4FBFAF9F8C3121DCC700302EE
:1012C6001408E47F01FEFDFC9002AAE0F9F8121D65
:1012D600F090017FE0F8A3E0F9A3E0FAA3E05FFF56
:1012E600EA5EFEE95DFDE85CFCE4FAF9F8C3121D6E
:1012F600CC70030214089001C9E0F8A3E0F9A3E05A
:10130600FAA3E0FBC000C001E47F01FEFDFC9002F1
:10131600AAE0F9F8121DF0D001D000EB4FFFEA4E1B
:10132600FEE94DFDE84CFC9001C9121E03802FE436
:101336007F01FEFDFC9002AAE0F9F8121DF0900173
:10134600C9E0F8A3E0F9A3E0FAA3E05FFFEA5EFED6
:10135600E95DFDE85CFC4D4E4F70030214429002BD
:10136600B0E004F0021442E47F01FEFDFC9002AA04
:10137600E0F9F8121DF090016AE0F8A3E0F9A3E0A5
:10138600FAA3E05FFFEA5EFEE95DFDE85CFCE4FBD4
:10139600FAF9F8C3121DCC6069E47F01FEFDFC90EA
:1013A60002AAE0F9F8121DF090017FE0F8A3E0F937
:1013B600A3E0FAA3E05FFFEA5EFEE95DFDE85CFC00
:1013C600E4FAF9F8C3121DCC60389002B0E004F0DC
:1013D6009001C9E0F8A3E0F9A3E0FAA3E0FBC0009E
:1013E600C001E47F01FEFDFC9002AAE0F9F8121D9F
:1013F600F0D001D000EB4FFFEA4EFEE94DFDE84C80
:1014060080339001C9E0F8A3E0F9A3E0FAA3E0FB7A
:10141600C000C001E47F01FEFDFC9002AAE0F9F8DD
:10142600121DF0121DBFD001D000EB5FFFEA5EFE79
:10143600E95DFDE85CFC9001C9121E039002AAE07A
:1014460004F0021259A20D300C01B3401C9001D0D9
:10145600E0FEA3E0F5828E83E0FCA3E0FDA3E0FEC0
:10146600A3E0FF9001C9121E03900010E0FF900157
:1014760017E0C39F501090000EE0FF900112E0C3EA
:101486009F500302158BE49002AAF090000DE0FF36
:101496009002AAE0FBC39F4003021581900115E06C
:1014A600FEA3E0F5828E83C083C0829002AAE0FF8D
:1014B600D082D08375F002121E40E0FCA3E0FD90BE
:1014C60001E6E0F8A3E0F582888375F002EF121ECC
:1014D60040ECF0A3EDF09001D0E0FEA3E0F5828EA3
:1014E60083121E0F000000009002AAE0FF9001CEBA
:1014F600E0FCA3E02FF582E43CF583E4F0900002E3
:10150600E0FCA3E02FF582E43CF583E4F0300732FB
:10151600900097E0FCA3E02FF582E43CF583E054CD
:101526000FF0900011E020E6499002AAE0FF90013A
:1015360010E0FCA3E02FF582E43CF583E0540FF0C5
:101546008030900097E0FEA3E02BF582E43EF58321
:10155600E054F0F0900011E020E6179002AAE0FFB8
:10156600900110E0FCA3E02FF582E43CF583E05403
:10157600F0F09002AAE004F00214919001C9121E44
:101586000F0000000090017EE0FF9002B0E0C39FD4
:101596005003021688E49002AAF090000DE0FF9036
:1015A60002AAE0C39F400302167E300A4190001152
:1015B600E020E63A900115E0FEA3E0F5828E83C0B6
:1015C60083C0829002AAE0FFD082D08375F0021217
:1015D6001E40E0FCA3E0FD9001E6E0FAA3E0F58200
:1015E6008A8375F002EF121E40ECF0A3EDF0900135
:1015F600D0E0FEA3E0F5828E83121E0F00000000ED
:101606009002AAE0FF9001CEE0FCA3E02FF582E471
:101616003CF583E4F0900002E0FCA3E02FF582E4C1
:101626003CF583E4F09002AAE0FF900097E0FCA36B
:10163600E02F30071EF582E43CF583E0540FF0906E
:101646000110E0FCA3E02FF582E43CF583E0540FA3
:10165600F0801CF582E43CF583E054F0F090011034
:10166600E0FCA3E02FF582E43CF583E054F0F09033
:1016760002AAE004F00215A09001C9121E0F000094
:101686000000900011E020E1030217F8E49002AA9E
:10169600F090000DE0FF9002AAE0F9C39F4003021C
:1016A60017F8E4A3F07F01FEFDFCA801121DF090DF
:1016B600016AE0F8A3E0F9A3E0FAA3E05FFFEA5EBF
:1016C600FEE95DFDE85CFCE4FBFAF9F8C3121DCC0B
:1016D60060069002ABE004F0E47F01FEFDFC9002A0
:1016E600AAE0F9F8121DF090017FE0F8A3E0F9A353
:1016F600E0FAA3E05FFFEA5EFEE95DFDE85CFCE47C
:10170600FBFAF9F8C3121DCC60069002ABE004F0B8
:101716009002ABE0FF60169002AAE025E02475F582
:1017260082E43400F583E475F001121B91EF640145
:1017360070299002AAE0FF25E02475F582E43400C2
:10174600F583E0FCA3E0FD9001E4E0FAA3E0FBC32F
:10175600ED9BEC9A50030217EF802C9002ABE064ED
:101766000270739002AAE0FF25E02475F582E43446
:1017760000F583E0FCA3E0FD900005E0FAA3E0FBA2
:10178600C3ED9BEC9A40629002AAE0FE25E024ACF1
:10179600F582E43400F583E0FCA3E0FDEE25E024C9
:1017A60084F582E43401F583ECF0A3EDF09002AA0F
:1017B600E0FE25E024DCF582E43400F583E0FCA3BA
:1017C600E0FDEE25E024A7F582E43401F583ECF094
:1017D600A3EDF0EF80049002AAE025E02475F582DF
:1017E600E43400F583E4F0A3F09002AAE004F002EA
:1017F6001697900011E0FF20E3030218FE20000375
:101806000218FE30E20FA20D300C01B34002B20DF9
:10181600D20A0218FEE49002AAF090000DE0FF90B2
:1018260002AAE0C39F40030218F4900115E0FEA34C
:10183600E0F5828E83C083C0829002AAE0FFD08248
:10184600D08375F002121E40E0FCA3E0FD9001E695
:10185600E0FAA3E0F5828A8375F002EF121E40ECEF
:10186600F0A3EDF09001D0E0FEA3E0F5828E8312A6
:101876001E0F000000009002AAE0FF9001CEE0FCDF
:10188600A3E02FF582E43CF583E4F0900002E0FC4F
:10189600A3E02FF582E43CF583E4F09002AAE0FF92
:1018A600900097E0FCA3E02F30071EF582E43CF59C
:1018B60083E0540FF0900110E0FCA3E02FF582E4E2
:1018C6003CF583E0540FF0801CF582E43CF583E0A0
:1018D60054F0F0900110E0FCA3E02FF582E43CF513
:1018E60083E054F0F09002AAE004F0021820900180
:1018F600C9121E0F0000000090010CE004F0E0B4D5
:10190600010CE4F0A207300C01B34002B207A20DAD
:10191600300301B35004A20D9203900004E0F8E6F0
:10192600D39400400116300A027630A207300C012B
:0A193600B35007A207920C1237F815
:011940002284
:103AF300123238E4F508F50990010CF0FB90000D43
:103B0300E0FFEBC39F4003023BDFEB25E024ACF572
:103B130082E43400F583E4F0A3F074CC2BF582E463
:103B23003400F583E4F074D42BF582E43401F58397
:103B3300E4F074332BF582E43400F583E4F0900170
:103B43006A121E0F00000000745A2BF582E4340140
:103B5300F583E4F0F508EB25E024DCF582E434009A
:103B6300F583E4F0A3F074CC2BF582E43400F58301
:103B7300E4F074EA2BF582E43401F583E4F0743362
:103B83002BF582E43400F583E4F090017F121E0FDD
:103B930000000000746E2BF582E43401F583E4F039
:103BA300F50974642BF582E43400F583E4F0749C26
:103BB3002BF582E43400F5837432F074FC2BF58228
:103BC300E43400F5837432F0EB25E02475F582E4E8
:0C3BD3003400F583E4F0A3F00B023B008B
:013BDF0022C3
:0300000002473D77
:0C473D00787FE4F6D8FD758123024784E4
:10194100E709F608DFFA8046E709F208DFFA803E88
:1019510088828C83E709F0A3DFFA8032E309F60875
:10196100DFFA8078E309F208DFFA807088828C83DD
:10197100E309F0A3DFFA806489828A83E0A3F60891
:10198100DFFA805889828A83E0A3F208DFFA804C6B
:1019910080D280FA80C680D4806980F28033801042
:1019A10080A680EA809A80A880DA80E280CA8033AB
:1019B10089828A83ECFAE493A3C8C582C8CCC58323
:1019C100CCF0A3C8C582C8CCC583CCDFE9DEE780F3
:1019D1000D89828A83E493A3F608DFF9ECFAA9F072
:1019E100EDFB2289828A83ECFAE0A3C8C582C8CCC8
:1019F100C583CCF0A3C8C582C8CCC583CCDFEADEE1
:101A0100E880DB89828A83E493A3F208DFF980CC42
:101A110088F0EF60010E4E60C388F0ED2402B4043B
:101A21000050B9F582EB2402B4040050AF232345E2
:061A31008223901991735D
:101A3700BB010689828A83E0225002E722BBFE02AD
:091A4700E32289828A83E49322E0
:101A5000BB010B89828A83F8E0C828F0E822500392
:101A600027C722BBFE07F8E3C828F3E8228A838948
:041A700082E4932257
:101A7400BB010CE58229F582E5833AF583E0225027
:101A840006E92582F8E622BBFE06E92582F8E22271
:0D1A9400E58229F582E5833AF583E493228B
:101AA100BB010989828A83F8E028F022500327F7D5
:101AB10022BBFE05F8E328F3228A838982F8E493A6
:021AC1002822D9
:101AC300BB010FF8E58229F582E5833AF583E02827
:101AD300F0225009C58229F8E58226F622BBFE09C9
:101AE300C58229F8E22582F222F8EA2583F583E903
:031AF30093282213
:101AF600BB010689828A83F0225002F722BBFE01CF
:021B0600F322C8
:101B0800F8BB010DE58229F582E5833AF583E8F013
:101B1800225006E92582C8F622BBFE05E92582C8BF
:021B2800F222A7
:101B2A00EF8DF0A4A8F0CF8CF0A428CE8DF0A42ECF
:021B3A00FE2289
:101B3C00BC000BBE0029EF8DF084FFADF022E4CC8D
:101B4C00F875F008EF2FFFEE33FEEC33FCEE9DEC56
:101B5C00984005FCEE9DFE0FD5F0E9E4CEFD22ED9C
:101B6C00F8F5F0EE8420D21CFEADF075F008EF2FE6
:101B7C00FFED33FD4007985006D5F0F222C398FDD7
:051B8C000FD5F0EA2274
:101B9100C5F0F8A3E028F0C5F0F8E58215827002DF
:061BA1001583E038F0227C
:101BA700A3F8E0C5F025F0F0E582158270021583F1
:061BB700E0C838F0E8224E
:101BBD00BB010A89828A83E0F5F0A3E022500687F3
:101BCD00F009E71922BBFE07E3F5F009E3192289B5
:0B1BDD00828A83E493F5F074019322E8
:101BE800BB0110E58229F582E5833AF583E0F5F03B
:101BF800A3E0225009E92582F886F008E622BBFE18
:101C08000AE92582F8E2F5F008E222E5832AF5835D
:081C1800E993F5F0A3E9932222
:101C2000BB010789828A83021B91500B09C5F027EB
:101C3000F7C5F01937F722BBFE0D09F8E325F0F3DD
:101C4000C5F019E338F322F889828A837401932559
:081C5000F0C5F0F8E49338221E
:101C5800BB010DC58229C582C5833AC583021B9184
:101C68005011C58229F808E5F026F618F5F0E58246
:101C780036F622BBFE11C58229F808E225F0F5F0F8
:101C8800F218E23582F222F8E58229F582E5832A04
:0D1C9800F58374019325F0F5F0E4933822F4
:101CA500BB010A89828A83F0E5F0A3F0225006F78A
:0F1CB50009A7F01922BBFE06F3E5F009F3192287
:101CC400F8BB0111E58229F582E5833AF583E8F052
:101CD400E5F0A3F0225009E92582C8F608A6F0220F
:0D1CE400BBFE09E92582C8F2E5F008F222F6
:101CF10075F008758200EF2FFFEE33FECD33CDCCAA
:101D010033CCC58233C5829BED9AEC99E58298402C
:101D11000CF582EE9BFEED9AFDEC99FC0FD5F0D609
:101D2100E4CEFBE4CDFAE4CCF9A88222B800C1B933
:101D31000059BA002DEC8BF084CFCECDFCE5F0CB71
:101D4100F97818EF2FFFEE33FEED33FDEC33FCEBAA
:101D510033FB10D703994004EB99FB0FD8E5E4F965
:101D6100FA227818EF2FFFEE33FEED33FDEC33FC52
:101D7100C933C910D7059BE99A4007EC9BFCE99A46
:101D8100F90FD8E0E4C9FAE4CCFB2275F010EF2F8B
:101D9100FFEE33FEED33FDCC33CCC833C810D7078B
:101DA1009BEC9AE899400AED9BFDEC9AFCE899F8C6
:0E1DB1000FD5F0DAE4CDFBE4CCFAE4C8F92259
:0D1DBF00CFF4CFCEF4CECDF4CDCCF4CC22B9
:101DCC00EB9FF5F0EA9E42F0E99D42F0E89C45F06D
:011DDC0022E4
:101DDD00E8600FECC313FCED13FDEE13FEEF13FFE4
:031DED00D8F12208
:101DF000E8600FEFC333FFEE33FEED33FDEC33FC51
:031E0000D8F122F4
:0C1E0300ECF0A3EDF0A3EEF0A3EFF02252
:101E0F00A8828583F0D083D082121E26121E26123E
:101E1F001E26121E26E473E493A3C583C5F0C58363
:101E2F00C8C582C8F0A3C583C5F0C583C8C582C81D
:011E3F002280
:0C1E4000A42582F582E5F03583F58322AD
:101E4C00D083D082F8E4937012740193700DA3A325
:101E5C0093F8740193F5828883E473740293B5F05C
:0D1E6C00067403936860E9A3A3A3A380D8C4
:0C585600EE30E707C3E49FFFE49EFE2253
:10474900024853E493A3F8E493A34003F68001F2EB
:1047590008DFF48029E493A3F85407240CC8C33371
:10476900C4540F4420C8834004F456800146F6DF40
:10477900E4800B01020408102040809040E3E47EAD
